{
  "abi": [
    {
      "type": "function",
      "name": "computeSealId",
      "inputs": [
        {
          "name": "issuer",
          "type": "address",
          "internalType": "address"
        },
        {
          "name": "target",
          "type": "address",
          "internalType": "address"
        },
        {
          "name": "runtimeHash",
          "type": "bytes32",
          "internalType": "bytes32"
        },
        {
          "name": "artifactFileHash",
          "type": "bytes32",
          "internalType": "bytes32"
        },
        {
          "name": "releaseId",
          "type": "bytes32",
          "internalType": "bytes32"
        }
      ],
      "outputs": [
        {
          "name": "",
          "type": "bytes32",
          "internalType": "bytes32"
        }
      ],
      "stateMutability": "view"
    },
    {
      "type": "function",
      "name": "getSeal",
      "inputs": [
        {
          "name": "sealId",
          "type": "bytes32",
          "internalType": "bytes32"
        }
      ],
      "outputs": [
        {
          "name": "sealRecord",
          "type": "tuple",
          "internalType": "struct ReleaseSealRegistry.Seal",
          "components": [
            {
              "name": "issuer",
              "type": "address",
              "internalType": "address"
            },
            {
              "name": "target",
              "type": "address",
              "internalType": "address"
            },
            {
              "name": "runtimeHash",
              "type": "bytes32",
              "internalType": "bytes32"
            },
            {
              "name": "artifactFileHash",
              "type": "bytes32",
              "internalType": "bytes32"
            },
            {
              "name": "releaseId",
              "type": "bytes32",
              "internalType": "bytes32"
            },
            {
              "name": "blockNumber",
              "type": "uint64",
              "internalType": "uint64"
            }
          ]
        }
      ],
      "stateMutability": "view"
    },
    {
      "type": "function",
      "name": "seal",
      "inputs": [
        {
          "name": "target",
          "type": "address",
          "internalType": "address"
        },
        {
          "name": "claimedRuntimeHash",
          "type": "bytes32",
          "internalType": "bytes32"
        },
        {
          "name": "artifactFileHash",
          "type": "bytes32",
          "internalType": "bytes32"
        },
        {
          "name": "releaseId",
          "type": "bytes32",
          "internalType": "bytes32"
        }
      ],
      "outputs": [
        {
          "name": "sealId",
          "type": "bytes32",
          "internalType": "bytes32"
        }
      ],
      "stateMutability": "nonpayable"
    },
    {
      "type": "function",
      "name": "sealExists",
      "inputs": [
        {
          "name": "sealId",
          "type": "bytes32",
          "internalType": "bytes32"
        }
      ],
      "outputs": [
        {
          "name": "",
          "type": "bool",
          "internalType": "bool"
        }
      ],
      "stateMutability": "view"
    },
    {
      "type": "event",
      "name": "ReleaseSealed",
      "inputs": [
        {
          "name": "sealId",
          "type": "bytes32",
          "indexed": true,
          "internalType": "bytes32"
        },
        {
          "name": "issuer",
          "type": "address",
          "indexed": true,
          "internalType": "address"
        },
        {
          "name": "target",
          "type": "address",
          "indexed": true,
          "internalType": "address"
        },
        {
          "name": "runtimeHash",
          "type": "bytes32",
          "indexed": false,
          "internalType": "bytes32"
        },
        {
          "name": "artifactFileHash",
          "type": "bytes32",
          "indexed": false,
          "internalType": "bytes32"
        },
        {
          "name": "releaseId",
          "type": "bytes32",
          "indexed": false,
          "internalType": "bytes32"
        },
        {
          "name": "blockNumber",
          "type": "uint64",
          "indexed": false,
          "internalType": "uint64"
        }
      ],
      "anonymous": false
    },
    {
      "type": "error",
      "name": "DuplicateSeal",
      "inputs": [
        {
          "name": "sealId",
          "type": "bytes32",
          "internalType": "bytes32"
        }
      ]
    },
    {
      "type": "error",
      "name": "RuntimeHashMismatch",
      "inputs": [
        {
          "name": "claimed",
          "type": "bytes32",
          "internalType": "bytes32"
        },
        {
          "name": "observed",
          "type": "bytes32",
          "internalType": "bytes32"
        }
      ]
    },
    {
      "type": "error",
      "name": "SealNotFound",
      "inputs": [
        {
          "name": "sealId",
          "type": "bytes32",
          "internalType": "bytes32"
        }
      ]
    },
    {
      "type": "error",
      "name": "TargetHasNoCode",
      "inputs": [
        {
          "name": "target",
          "type": "address",
          "internalType": "address"
        }
      ]
    },
    {
      "type": "error",
      "name": "ZeroEvidence",
      "inputs": []
    }
  ],
  "bytecode": {
    "object": "0x608060405234801561000f575f80fd5b50610b618061001d5f395ff3fe608060405234801561000f575f80fd5b506004361061004a575f3560e01c806351edc1d61461004e57806365e605501461007e5780638015782f146100ae578063ededee37146100de575b5f80fd5b610068600480360381019061006391906107d2565b61010e565b6040516100759190610845565b60405180910390f35b6100986004803603810190610093919061085e565b610495565b6040516100a59190610942565b60405180910390f35b6100c860048036038101906100c3919061095b565b61062a565b6040516100d59190610845565b60405180910390f35b6100f860048036038101906100f3919061085e565b610669565b60405161010591906109ec565b60405180910390f35b5f805f1b84148061012057505f801b83145b8061012c57505f801b82145b15610163576040517fd1894cc800000000000000000000000000000000000000000000000000000000815260040160405180910390fd5b5f8573ffffffffffffffffffffffffffffffffffffffff163b036101be57846040517ffff233610000000000000000000000000000000000000000000000000000000081526004016101b59190610a14565b60405180910390fd5b5f8573ffffffffffffffffffffffffffffffffffffffff163f905084811461021f5784816040517f13d1dbd3000000000000000000000000000000000000000000000000000000008152600401610216929190610a2d565b60405180910390fd5b61022c338783878761062a565b91505f73ffffffffffffffffffffffffffffffffffffffff165f808481526020019081526020015f205f015f9054906101000a900473ffffffffffffffffffffffffffffffffffffffff1673ffffffffffffffffffffffffffffffffffffffff16146102cf57816040517f9d0d46f20000000000000000000000000000000000000000000000000000000081526004016102c69190610845565b60405180910390fd5b5f4390506040518060c001604052803373ffffffffffffffffffffffffffffffffffffffff1681526020018873ffffffffffffffffffffffffffffffffffffffff1681526020018381526020018681526020018581526020018267ffffffffffffffff168152505f808581526020019081526020015f205f820151815f015f6101000a81548173ffffffffffffffffffffffffffffffffffffffff021916908373ffffffffffffffffffffffffffffffffffffffff1602179055506020820151816001015f6101000a81548173ffffffffffffffffffffffffffffffffffffffff021916908373ffffffffffffffffffffffffffffffffffffffff16021790555060408201518160020155606082015181600301556080820151816004015560a0820151816005015f6101000a81548167ffffffffffffffff021916908367ffffffffffffffff1602179055509050508673ffffffffffffffffffffffffffffffffffffffff163373ffffffffffffffffffffffffffffffffffffffff16847f8987fd74aee8982f768043cc15c56af6622b63ed81e6c1326464e3543e58b22d858989876040516104839493929190610a63565b60405180910390a45050949350505050565b61049d6106d2565b5f808381526020019081526020015f206040518060c00160405290815f82015f9054906101000a900473ffffffffffffffffffffffffffffffffffffffff1673ffffffffffffffffffffffffffffffffffffffff1673ffffffffffffffffffffffffffffffffffffffff168152602001600182015f9054906101000a900473ffffffffffffffffffffffffffffffffffffffff1673ffffffffffffffffffffffffffffffffffffffff1673ffffffffffffffffffffffffffffffffffffffff168152602001600282015481526020016003820154815260200160048201548152602001600582015f9054906101000a900467ffffffffffffffff1667ffffffffffffffff1667ffffffffffffffff168152505090505f73ffffffffffffffffffffffffffffffffffffffff16815f015173ffffffffffffffffffffffffffffffffffffffff160361062557816040517f5f3e4f0e00000000000000000000000000000000000000000000000000000000815260040161061c9190610845565b60405180910390fd5b919050565b5f463087878787876040516020016106489796959493929190610abe565b60405160208183030381529060405280519060200120905095945050505050565b5f8073ffffffffffffffffffffffffffffffffffffffff165f808481526020019081526020015f205f015f9054906101000a900473ffffffffffffffffffffffffffffffffffffffff1673ffffffffffffffffffffffffffffffffffffffff1614159050919050565b6040518060c001604052805f73ffffffffffffffffffffffffffffffffffffffff1681526020015f73ffffffffffffffffffffffffffffffffffffffff1681526020015f80191681526020015f80191681526020015f80191681526020015f67ffffffffffffffff1681525090565b5f80fd5b5f73ffffffffffffffffffffffffffffffffffffffff82169050919050565b5f61076e82610745565b9050919050565b61077e81610764565b8114610788575f80fd5b50565b5f8135905061079981610775565b92915050565b5f819050919050565b6107b18161079f565b81146107bb575f80fd5b50565b5f813590506107cc816107a8565b92915050565b5f805f80608085870312156107ea576107e9610741565b5b5f6107f78782880161078b565b9450506020610808878288016107be565b9350506040610819878288016107be565b925050606061082a878288016107be565b91505092959194509250565b61083f8161079f565b82525050565b5f6020820190506108585f830184610836565b92915050565b5f6020828403121561087357610872610741565b5b5f610880848285016107be565b91505092915050565b61089281610764565b82525050565b6108a18161079f565b82525050565b5f67ffffffffffffffff82169050919050565b6108c3816108a7565b82525050565b60c082015f8201516108dd5f850182610889565b5060208201516108f06020850182610889565b5060408201516109036040850182610898565b5060608201516109166060850182610898565b5060808201516109296080850182610898565b5060a082015161093c60a08501826108ba565b50505050565b5f60c0820190506109555f8301846108c9565b92915050565b5f805f805f60a0868803121561097457610973610741565b5b5f6109818882890161078b565b95505060206109928882890161078b565b94505060406109a3888289016107be565b93505060606109b4888289016107be565b92505060806109c5888289016107be565b9150509295509295909350565b5f8115159050919050565b6109e6816109d2565b82525050565b5f6020820190506109ff5f8301846109dd565b92915050565b610a0e81610764565b82525050565b5f602082019050610a275f830184610a05565b92915050565b5f604082019050610a405f830185610836565b610a4d6020830184610836565b9392505050565b610a5d816108a7565b82525050565b5f608082019050610a765f830187610836565b610a836020830186610836565b610a906040830185610836565b610a9d6060830184610a54565b95945050505050565b5f819050919050565b610ab881610aa6565b82525050565b5f60e082019050610ad15f83018a610aaf565b610ade6020830189610a05565b610aeb6040830188610a05565b610af86060830187610a05565b610b056080830186610836565b610b1260a0830185610836565b610b1f60c0830184610836565b9897505050505050505056fea2646970667358221220a15565715efac0c8a0df34614503c91e09dbba50b94dd8801a7ceda2b198542664736f6c63430008170033",
    "linkReferences": {}
  },
  "methodIdentifiers": {
    "computeSealId(address,address,bytes32,bytes32,bytes32)": "8015782f",
    "getSeal(bytes32)": "65e60550",
    "seal(address,bytes32,bytes32,bytes32)": "51edc1d6",
    "sealExists(bytes32)": "ededee37"
  },
  "id": 3
}